:020000040800F2
:1000000000000220DD3F0008012D0008092D000836
:10001000112D0008192D0008212D000800000000F6
:10002000000000000000000000000000292D000872
:10003000372D000800000000452D0008532D000852
:100040002D4000082D4000082D4000082D400008DC
:100050002D4000082D4000082D4000082D400008CC
:100060002D4000082D4000082D4000082D400008BC
:100070002D4000082D4000082D4000082D400008AC
:100080002D4000082D4000082D4000082D4000089C
:100090002D4000082D4000082D4000082D4000088C
:1000A0002D4000082D4000082D4000082D4000087C
:1000B000612D00082D4000082D4000082D4000084B
:1000C0002D4000082D4000082D4000082D4000085C
:1000D0002D4000082D4000082D4000082D4000084C
:1000E0002D4000082D4000082D4000082D4000083C
:1000F0002D4000082D4000082D4000082D4000082C
:100100002D4000082D4000082D4000082D4000081B
:100110002D4000082D4000082D4000082D4000080B
:10012000752D00082D4000082D4000082D400008C6
:100130002D4000082D4000082D4000082D400008EB
:100140002D4000082D4000082D4000082D400008DB
:100150002D4000082D4000082D4000082D400008CB
:100160002D4000082D4000082D4000082D400008BB
:100170002D4000082D4000082D4000080000000020
:080180002D4000082D4000088D
:1001900010B5054C237833B9044B13B10448AFF3C1
:1001A00000800123237010BDC0000020000000006B
:1001B000B892000808B5034B1BB103490348AFF3DD
:1001C000008008BD00000000C4000020B8920008B4
:1001D00001F0FF01102A2BDB10F0070F08D010F8F8
:1001E000013B013A8B422DD010F0070F42B3F6D1FC
:1001F000F0B441EA012141EA014122F007047FF015
:1002000000070023F0E80256083C85EA010586EA6B
:10021000010685FA47F5A3FA87F586FA47F6A5FAA7
:1002200087F68EB9EED1F0BC01F0FF0102F00702B3
:1002300032B110F8013B013A83EA010313B1F8D15E
:100240000020704701387047002D06BF354603383F
:10025000073815F0010F07D1013015F4807F02BF78
:10026000013015F4C03F0130F0BC0138704700BFC9
:1002700081F0004102E000BF83F0004330B54FEA57
:1002800041044FEA430594EA050F08BF90EA020FC4
:100290001FBF54EA000C55EA020C7FEA645C7FEA57
:1002A000655C00F0E2804FEA5454D4EB5555B8BF7A
:1002B0006D420CDD2C4480EA020281EA030382EAEB
:1002C000000083EA010180EA020281EA0303362D7D
:1002D00088BF30BD11F0004F4FEA01314FF4801C50
:1002E0004CEA113102D0404261EB410113F0004F62
:1002F0004FEA03334CEA133302D0524263EB430319
:1003000094EA050F00F0A780A4F10104D5F1200EB6
:100310000DDB02FA0EFC22FA05F2801841F1000111
:1003200003FA0EF2801843FA05F359410EE0A5F1E5
:1003300020050EF1200E012A03FA0EFC28BF4CF016
:10034000020C43FA05F3C01851EBE37101F00045CC
:1003500007D54FF0000EDCF1000C7EEB00006EEBD9
:100360000101B1F5801F1BD3B1F5001F0CD3490863
:100370005FEA30004FEA3C0C04F101044FEA4452BA
:1003800012F5800F80F09A80BCF1004F08BF5FEA41
:10039000500C50F1000041EB045141EA050130BD21
:1003A0005FEA4C0C404141EB0101013C28BFB1F533
:1003B000801FE9D291F0000F04BF01460020B1FA7E
:1003C00081F308BF2033A3F10B03B3F120020CDA51
:1003D0000C3208DD02F1140CC2F10C0201FA0CF02F
:1003E00021FA02F10CE002F11402D8BFC2F1200C94
:1003F00001FA02F120FA0CFCDCBF41EA0C0190404A
:10040000E41AA2BF01EB0451294330BD6FEA040492
:100410001F3C1CDA0C340EDC04F11404C4F120027D
:1004200020FA04F001FA02F340EA030021FA04F38F
:1004300045EA030130BDC4F10C04C4F1200220FAE6
:1004400002F001FA04F340EA0300294630BD21FA24
:1004500004F0294630BD94F0000F83F4801306BFEA
:1004600081F480110134013D4EE77FEA645C18BFDE
:100470007FEA655C29D094EA050F08BF90EA020F75
:1004800005D054EA000C04BF1946104630BD91EA6D
:10049000030F1EBF0021002030BD5FEA545C05D170
:1004A0004000494128BF41F0004130BD14F58004AF
:1004B0003CBF01F5801130BD01F0004545F0FE4123
:1004C00041F470014FF0000030BD7FEA645C1ABF58
:1004D000194610467FEA655C1CBF0B46024650EA8F
:1004E000013406BF52EA033591EA030F41F40021BB
:1004F00030BD00BF90F0000F04BF0021704730B541
:100500004FF4806404F132044FF000054FF0000115
:1005100050E700BF90F0000F04BF0021704730B5D6
:100520004FF4806404F1320410F0004548BF4042AB
:100530004FF000013EE700BF42004FEAE2014FEA00
:1005400031014FEA02701FBF12F07F4393F07F4FDB
:1005500081F06051704732F07F4208BF704793F0DE
:100560007F4F04BF41F40021704730B54FF46074F1
:1005700001F0004521F000411CE700BF50EA0102F4
:1005800008BF704730B54FF000050AE050EA01029D
:1005900008BF704730B511F0004502D5404261EB0D
:1005A00041014FF4806404F132045FEA915C3FF44E
:1005B000D8AE4FF003025FEADC0C18BF03325FEAEB
:1005C000DC0C18BF033202EBDC02C2F1200300FA9C
:1005D00003FC20FA02F001FA03FE40EA0E0021FAC1
:1005E00002F11444BDE600BF70B54FF0FF0C4CF4AF
:1005F000E06C1CEA11541DBF1CEA135594EA0C0F61
:1006000095EA0C0F00F0DEF82C4481EA030621EA9B
:100610004C5123EA4C5350EA013518BF52EA0335D6
:1006200041F4801143F4801338D0A0FB02CE4FF088
:100630000005E1FB02E506F00042E0FB03E54FF0B8
:100640000006E1FB03569CF0000F18BF4EF0010EB0
:10065000A4F1FF04B6F5007F64F5407404D25FEAAC
:100660004E0E6D4146EB060642EAC62141EA55515F
:100670004FEAC52040EA5E504FEACE2EB4F1FD0CA1
:1006800088BFBCF5E06F1ED8BEF1004F08BF5FEA1F
:10069000500E50F1000041EB045170BD06F00046D1
:1006A00046EA010140EA020081EA0301B4EB5C047E
:1006B000C2BFD4EB0C0541EA045170BD41F4801176
:1006C0004FF0000E013C00F3AB8014F1360FDEBF9B
:1006D000002001F0004170BDC4F10004203C35DA77
:1006E0000C341BDC04F11404C4F1200500FA05F3FA
:1006F00020FA04F001FA05F240EA020001F000429B
:1007000021F0004110EBD37021FA04F642EB060110
:100710005EEA430E08BF20EAD37070BDC4F10C043A
:10072000C4F1200500FA04F320FA05F001FA04F2FE
:1007300040EA020001F0004110EBD37041F10001EA
:100740005EEA430E08BF20EAD37070BDC4F12005F5
:1007500000FA05F24EEA020E20FA04F301FA05F25D
:1007600043EA020321FA04F001F0004121FA04F205
:1007700020EA020000EBD3705EEA430E08BF20EAD5
:10078000D37070BD94F0000F0FD101F0004640000F
:1007900041EB010111F4801F08BF013CF7D041EA91
:1007A000060195F0000F18BF704703F00046520095
:1007B00043EB030313F4801F08BF013DF7D043EA66
:1007C0000603704794EA0C0F0CEA135518BF95EA1C
:1007D0000C0F0CD050EA410618BF52EA4306D1D1A3
:1007E00081EA030101F000414FF0000070BD50EAC2
:1007F000410606BF1046194652EA430619D094EA4C
:100800000C0F02D150EA013613D195EA0C0F05D135
:1008100052EA03361CBF104619460AD181EA030189
:1008200001F0004141F0FE4141F470014FF0000041
:1008300070BD41F0FE4141F4780170BD70B54FF0DC
:10084000FF0C4CF4E06C1CEA11541DBF1CEA13555C
:1008500094EA0C0F95EA0C0F00F0A7F8A4EB05043E
:1008600081EA030E52EA03354FEA013100F0888035
:100870004FEA03334FF0805545EA131343EA1263FE
:100880004FEA022245EA111545EA10654FEA0026B3
:100890000EF000419D4208BF964244F1FD0404F56C
:1008A000407402D25B084FEA3202B61A65EB0305C8
:1008B0005B084FEA32024FF480104FF4002CB6EB85
:1008C000020E75EB030E22BFB61A754640EA0C0005
:1008D0005B084FEA3202B6EB020E75EB030E22BF45
:1008E000B61A754640EA5C005B084FEA3202B6EB86
:1008F000020E75EB030E22BFB61A754640EA9C0045
:100900005B084FEA3202B6EB020E75EB030E22BF14
:10091000B61A754640EADC0055EA060E18D04FEAD2
:10092000051545EA16754FEA06164FEAC30343EA72
:1009300052734FEAC2025FEA1C1CC0D111F4801F3F
:100940000BD141EA00014FF000004FF0004CB6E738
:1009500011F4801F04BF01430020B4F1FD0C88BFD7
:10096000BCF5E06F3FF6AFAEB5EB030C04BFB6EBE2
:10097000020C5FEA500C50F1000041EB045170BDD5
:100980000EF0004E4EEA113114EB5C04C2BFD4EB02
:100990000C0541EA045170BD41F480114FF0000E86
:1009A000013C90E645EA060E8DE60CEA135594EA02
:1009B0000C0F08BF95EA0C0F3FF43BAF94EA0C0F05
:1009C0000AD150EA01347FF434AF95EA0C0F7FF47A
:1009D00025AF104619462CE795EA0C0F06D152EACE
:1009E00003353FF4FDAE1046194622E750EA4106B2
:1009F00018BF52EA43067FF4C5AE50EA41047FF4C3
:100A00000DAF52EA43057FF4EBAE12E74FF0FF3C27
:100A100006E000BF4FF0010C02E000BF4FF0010CF8
:100A20004DF804CD4FEA410C7FEA6C5C4FEA430C71
:100A300018BF7FEA6C5C1BD001B050EA410C0CBFC0
:100A400052EA430C91EA030F02BF90EA020F002022
:100A5000704710F1000F91EA030F58BF994208BF89
:100A600090422CBFD8176FEAE37040F00100704746
:100A70004FEA410C7FEA6C5C02D150EA013C07D19D
:100A80004FEA430C7FEA6C5CD6D152EA033CD3D0E8
:100A90005DF8040B704700BF8446104662468C46E2
:100AA0001946634600E000BF01B5FFF7B7FF002815
:100AB00048BF10F1000F01BD4DF808EDFFF7F4FF3E
:100AC0000CBF012000205DF808FB00BF4DF808EDC9
:100AD000FFF7EAFF34BF012000205DF808FB00BFEC
:100AE0004DF808EDFFF7E0FF94BF012000205DF80E
:100AF00008FB00BF4DF808EDFFF7CEFF94BF0120C3
:100B000000205DF808FB00BF4DF808EDFFF7C4FFBB
:100B100034BF012000205DF808FB00BF4FEA410C04
:100B20007FEA6C5C02D150EA013C0AD14FEA430CE7
:100B30007FEA6C5C02D152EA033C02D14FF0000024
:100B400070474FF0010070474A0011D212F50012B1
:100B500011D20DD56FF47873B3EB62520ED44FEA15
:100B6000C12343F0004343EA505323FA02F0704795
:100B70004FF00000704750EA013002D14FF0FF30D3
:100B800070474FF00000704753B94AB9002908BFB9
:100B900000281CBF4FF0FF314FF0FF3000F06AB962
:100BA000ADF1080C6DE904CE00F006F8DDF804E0C4
:100BB000DDE9022304B070472DE9F047089D0C469B
:100BC000002B4ED194468C458646B2FA82F262D909
:100BD0004AB1C2F12003914020FA03F30CFA02FC5F
:100BE000194300FA02FE4FEA1C471FFA8CF6B1FBCC
:100BF000F7F44FEA1E4307FB141143EA014304FBD9
:100C000006F199420AD91CEB030304F1FF3080F08E
:100C10001281994240F20F81023C6344591A1FFA33
:100C20008EF3B1FBF7F007FB101143EA014300FB21
:100C300006F69E420AD91CEB030300F1FF3180F057
:100C4000FC809E4240F2F980634402389B1B40EADC
:100C5000044000211DB1D3400022C5E90032BDE8A7
:100C6000F0878B4205D90DB1C5E900010021084686
:100C7000F5E7B3FA83F1002946D1A34202D39042AB
:100C8000C0F0F080861A64EB03030120002DE6D04B
:100C9000C5E90063E3E7002A40F09080A1EB0C0473
:100CA0004FEA1C481FFA8CF70121B4FBF8F64FEA13
:100CB0001E4308FB164443EA044307FB06F0984230
:100CC00008D91CEB030306F1FF3402D2984200F26C
:100CD000CD8026461C1A1FFA8EF3B4FBF8F008FBF1
:100CE000104443EA044300FB07F79F4208D91CEB7A
:100CF000030300F1FF3402D29F4200F2B08020468D
:100D0000DB1B40EA0640A5E7C1F120068B4022FA32
:100D100006F71F4320FA06FC04FA01F343EA0C032A
:100D2000F44000FA01F8380C4FEA1349B4FBF0FE26
:100D30001FFA87FC00FB1E4449EA04440EFB0CF931
:100D4000A14502FA01F20AD93C190EF1FF3A80F0EE
:100D50008480A14540F28180AEF1020E3C44A4EBB8
:100D600009041FFA83F9B4FBF0F300FB134449EACA
:100D7000044403FB0CFCA44507D93C1903F1FF30E4
:100D800067D2A44565D9023B3C4443EA0E40A0FB30
:100D90000293A4EB0C049C42CE469C4651D34ED009
:100DA00055B1B8EB0E0364EB0C0404FA06F6CB4025
:100DB0001E43CC40C5E90064002150E7C2F1200386
:100DC00020FA03F10CFA02FC24FA03F394400C43DA
:100DD0004FEA1C4800FA02FE1FFA8CF7B3FBF8F04A
:100DE00008FB1031230C43EA014300FB07F1994251
:100DF00008D91CEB030300F1FF362CD299422AD903
:100E0000023863445B1AA4B2B3FBF8F108FB113358
:100E100044EA034401FB07F3A34208D91CEB040492
:100E200001F1FF3613D2A34211D902396444E41A06
:100E300041EA004139E70446F0E6084606E7C845BE
:100E4000AED2B9EB020E63EB070C0138A8E73146CE
:100E5000EDE7034699E73046D4E7D6467FE763449B
:100E600002384DE70646234608460FE7023E634434
:100E700030E700BF704700BF80B584B000AF3B468D
:100E800000221A605A609A60DA603D4B3D4A1A604F
:100E90003B4B00225A603A4B00229A60384B0122A9
:100EA0001A61374B00221A76354B002283F8202036
:100EB000334B0022DA62324B334A9A62304B0022C3
:100EC000DA602F4B0522DA612D4B002283F83020A7
:100ED0002B4B01225A612A4803F040F90346002BAC
:100EE00001D001F0F3FD08233B6001237B60002368
:100EF000BB603B461946224803F074F90346002BB9
:100F000001D001F0E3FD09233B6002237B603B46F7
:100F100019461B4803F066F90346002B01D001F087
:100F2000D5FD0A233B6003237B603B4619461448EA
:100F300003F058F90346002B01D001F0C7FD0B2345
:100F40003B6004237B603B4619460D4803F04AF999
:100F50000346002B01D001F0B9FD0C233B600523B3
:100F60007B603B461946064803F03CF90346002BDC
:100F700001D001F0ABFD00BF1037BD4680BD00BF02
:100F8000DC000020002001400100000F80B58AB085
:100F900000AF786007F1140300221A605A609A606B
:100FA000DA601A617B681B683C4A934271D1002366
:100FB0003B613B4B5B6C3A4A43F480735364384B60
:100FC0005B6C03F480733B613B690023FB60344B33
:100FD0001B6B334A43F004031363314B1B6B03F069
:100FE0000403FB60FB680023BB602D4B1B6B2C4A8A
:100FF00043F0020313632A4B1B6B03F00203BB6035
:10100000BB6807237B610323BB610023FB6107F1FE
:1010100014031946234803F0FFFE03237B610323D7
:10102000BB610023FB6107F1140319461E4803F05E
:10103000F3FE1E4B1E4A1A601C4B00225A601B4BCB
:1010400000229A60194B0022DA60184B4FF480623C
:101050001A61164B4FF400625A61144B4FF4005260
:101060009A61124B4FF48072DA61104B00221A62BF
:101070000E4B00225A620D4803F0E4FB0346002B9E
:1010800001D001F023FD7B68084A9A63074A7B6818
:10109000936300BF2837BD4680BD00BF00200140DC
:1010A00000380240000802400004024024010020F1
:1010B0001064024080B500AF00F03CF800BF80BD76
:1010C00080B588B004AF0346FB800023FB73FA8829
:1010D0000A2302930123019307F10F0300931023C6
:1010E000A021044804F0A4FAFB7B18461037BD4643
:1010F00080BD00BFD801002080B586B004AF034694
:101100000A46FB8013467B71FA880A230293012367
:1011100001937B1D00931023A021054804F08EF954
:10112000052002F0F7FF00BF0837BD4680BD00BFB5
:10113000D801002080B582B000AF4FF6FF70FFF7F6
:10114000BFFF0346FB71FB79552B01D1002310E053
:1011500055214FF6FF70FFF7CFFF4FF6FF70FFF7F7
:10116000AFFF0346FB71FB79552B01D1002300E053
:10117000012318460837BD4680BD90B583B000AF47
:1011800003463960FB801346BB800DE0FB885A1C88
:10119000FA803C68621C3A601846FFF791FF0346EC
:1011A0002370BB88013BBB80BB88002BEED100BF06
:1011B00000BF0C37BD4690BD80B582B000AF03467E
:1011C0003960FB801346BB800CE03B681A78FB88D3
:1011D00011461846FFF790FFFB880133FB803B6800
:1011E00001333B60BB885A1EBA80002BEDD100BF93
:1011F00000BF0837BD4680BD80B500AF0122082181
:10120000024803F0BDFF00BF80BD00BF000C0240DC
:1012100080B582B000AF00237B600C4B1B6B0B4A88
:1012200043F480031363094B1B6B03F480037B605F
:101230007B6800220021382003F0CDFA382003F02B
:10124000E6FA00BF0837BD4680BD00BF0038024047
:1012500080B58EB000AF07F11C0300221A605A60FF
:101260009A60DA601A615A619A613B4600221A60FC
:101270005A609A60DA601A615A619A612F4B4FF096
:1012800020421A602D4B2E4A5A602C4B00229A6045
:101290002A4B0022DA60294B00221A61274B1022C8
:1012A0005A61264B00229A61244B0022DA61234BBB
:1012B00000221A62214B00225A62204B4FF48052C6
:1012C0009A621E4B0022DA621C4B4FF480421A6372
:1012D0001A4B00225A63194B00229A63174B0022C3
:1012E0005A640F23FB610F233B623C237B62002384
:1012F000BB621023FB6211233B6300237B63082343
:101300003B600F237B600923BB600023FB6010233D
:101310003B6111237B610023BB613A4607F11C034B
:101320001946064805F01AFE0346002B01D001F0CD
:10133000CDFB00BF3837BD4680BD00BF8401002013
:10134000040100A080B586B000AF3B1D00221A60EA
:101350005A609A60DA601A611C4B1B68002B31D10D
:101360001A4B01221A6000233B60194B9B6B184AF1
:1013700043F001039363164B9B6B03F001033B6047
:101380003B684FF688737B600223BB600023FB60E1
:1013900003233B610C237B613B1D19460D4803F081
:1013A0003BFD4CF2B3737B600223BB600023FB6008
:1013B00003233B610C237B613B1D1946064803F068
:1013C0002BFD00E000BF1837BD4680BDD4010020D2
:1013D0000038024000100240000C024080B582B08C
:1013E00000AF7860FFF7AEFF00BF0837BD4680BD95
:1013F00080B58EB000AF07F1240300221A605A6056
:101400009A60DA601A6100233B627E4B1B6B7D4A57
:1014100043F0100313637B4B1B6B03F010033B6221
:101420003B6A0023FB61774B1B6B764A43F0040356
:101430001363744B1B6B03F00403FB61FB69002314
:10144000BB61704B1B6B6F4A43F0200313636D4B02
:101450001B6B03F02003BB61BB6900237B61694BFD
:101460001B6B684A43F080031363664B1B6B03F0EE
:1014700080037B617B6900233B61624B1B6B614A8C
:1014800043F0010313635F4B1B6B03F001033B61EC
:101490003B690023FB605B4B1B6B5A4A43F0020322
:1014A0001363584B1B6B03F00203FB60FB680023C4
:1014B000BB60544B1B6B534A43F008031363514BFF
:1014C0001B6B03F00803BB60BB6800237B604D4BC4
:1014D0001B6B4C4A43F0400313634A4B1B6B03F0F6
:1014E00040037B607B6800227021474803F048FE80
:1014F00000224FF40851454803F042FE00224FF409
:10150000E071434803F03CFE00224FF480714148F3
:1015100003F036FE002208213F4803F031FE70231D
:101520007B620123BB620023FB6200233B6307F164
:1015300024031946344803F06FFC4FF408537B62D0
:101540000123BB620023FB6200233B6307F12403FA
:1015500019462E4803F060FCC0237B620023BB6267
:101560000023FB6207F1240319462A4803F054FCC8
:1015700030237B620023BB620023FB6207F124035C
:101580001946224803F048FC4FF4E0737B620123C4
:10159000BB620023FB6200233B6307F1240319466F
:1015A0001B4803F039FC4FF488537B620023BB6275
:1015B0000123FB6207F124031946144803F02CFCB5
:1015C0004FF480737B620123BB620023FB62002324
:1015D0003B6307F1240319460E4803F01DFC082362
:1015E0007B620123BB620023FB6200233B6307F1A4
:1015F00024031946084803F00FFC00BF3837BD46E6
:1016000080BD00BF003802400010024000080240C8
:101610000018024000000240000C024080B500AFFC
:10162000124B134A1A60114B124A5A600F4B002298
:101630009A600E4B0022DA600C4B4FF480421A6124
:101640000A4B00225A61094B00229A61074B002283
:10165000DA61064B00221A62044803F0ABFD034630
:10166000002B01D001F032FA00BF80BDD80100206C
:1016700000540040A086010080B58AB000AF7860B9
:1016800007F1140300221A605A609A60DA601A6146
:101690007B681B68194A93422BD100233B61184B8E
:1016A0001B6B174A43F002031363154B1B6B03F0CC
:1016B00002033B613B69C0237B611223BB610023B2
:1016C000FB6103233B6204237B6207F11403194689
:1016D0000C4803F0A1FB0023FB60094B1B6C084A7C
:1016E00043F400131364064B1B6C03F40013FB60FC
:1016F000FB6800BF2837BD4680BD00BF00540040D6
:10170000003802400004024080B483B000AF0346BA
:10171000FB80044AFB88138000BF0C37BD465DF890
:10172000047B7047FEFF0F6080B483B000AF0346B8
:10173000FB80044AFB88538000BF0C37BD465DF830
:10174000047B7047FEFF0F6080B483B000AF064B90
:101750005B889BB2FB80FB889BB218460C37BD466A
:101760005DF8047B704700BFFEFF0F6090B583B04B
:1017700000AF0446084611461A462346FB8003463E
:10178000BB800B467B8013463B802A20FFF7BCFFC3
:10179000FB881B0A9BB21846FFF7C6FFFB88DBB22B
:1017A0009BB21846FFF7C0FF7B881B0A9BB2184606
:1017B000FFF7BAFF7B88DBB29BB21846FFF7B4FF96
:1017C0002B20FFF7A1FFBB881B0A9BB21846FFF72F
:1017D000ABFFBB88DBB29BB21846FFF7A5FF3B8887
:1017E0001B0A9BB21846FFF79FFF3B88DBB29BB2F8
:1017F0001846FFF799FF2C20FFF786FF00BF0C3734
:10180000BD4690BD80B584B000AF0346FB80154B4C
:101810001B88013B9AB2134B5B88013B9BB20021B2
:101820000020FFF7A3FF0023FB8111E00023BB8111
:1018300006E0FB881846FFF777FFBB890133BB81C1
:10184000084B5B88BA899A42F3D3FB890133FB8149
:10185000044B1B88FA899A42E8D300BF00BF1037B7
:10186000BD4680BD2C02002090B585B000AF044677
:10187000084611461A462346FB800346BB800B46AA
:101880007B8013463B807B88013B9AB23B88013BBF
:101890009BB2B988F888FFF769FFBB88FB8110E02D
:1018A000FB88BB8106E03B8C1846FFF73DFFBB89F8
:1018B0000133BB81BA897B889A42F4D3FB89013317
:1018C000FB81FA893B889A42EAD300BF00BF1437F4
:1018D000BD4690BD80B582B000AF0346FB800B468D
:1018E000BB8013467B80BB88FA88B988F888FFF7ED
:1018F0003DFF7B881846FFF717FF00BF0837BD463E
:1019000080BD90B58DB000AF0446084611461A461A
:101910002346FB800346BB800B467B8013463B80FF
:101920000023BB6200237B627A88FB88D31A3B6268
:101930003A88BB88D31AFB61FB88FB60BB88BB601D
:101940003B6A002B02DD01237B610BE03B6A002B2D
:1019500002D100237B6105E04FF0FF337B613B6ADE
:101960005B423B62FB69002B02DD01233B610BE024
:10197000FB69002B02D100233B6105E04FF0FF33F0
:101980003B61FB695B42FB613A6AFB699A4202DD9B
:101990003B6ABB6101E0FB69BB610023FB852BE077
:1019A000FB689BB2BA6891B2B7F840201846FFF7BF
:1019B00091FFBA6A3B6A1344BB627A6AFB691344BB
:1019C0007B62BA6ABB699A4207DDBA6ABB69D31AFD
:1019D000BB62FA687B691344FB607A6ABB699A420E
:1019E00007DD7A6ABB69D31A7B62BA683B69134424
:1019F000BB60FB8D0133FB85FB8DBA699A42CFDA60
:101A000000BF00BF3437BD4690BD000090B587B021
:101A100000AF0446084611461A462346FB8003469B
:101A2000BB800B46FB7013463B8000237B75FB8815
:101A30003B8297F82C305B08FB73FB7BDB08DBB247
:101A40001A46FB7B03F00703DBB2002B14BF012314
:101A50000023DBB213449AB297F82C309BB212FBEE
:101A600003F3BB81FB78203BFB70FB7B9AB2FB88C6
:101A700013449BB2013B9CB297F82C309AB2BB88BE
:101A800013449BB2013B9BB2B988F8882246FFF70A
:101A90006DFE00237B827AE097F82C300C2B28D047
:101AA00097F82C30102B08D1FA787B8A3C49120128
:101AB0000A4413441B78FB751BE097F82C30182B55
:101AC0000BD1FA78798A374813465B0013441B011F
:101AD00003440B441B78FB750BE097F82C30202B4C
:101AE0005AD1FA787B8A304992010A4413441B7810
:101AF000FB750023BB7544E097F83030002B20D1F4
:101B0000FA7DBB7D42FA03F303F00103002B04D0FE
:101B10003B881846FFF708FE03E03B8D1846FFF7A9
:101B200003FE7B7D01337B757B7DFA7BB3FBF2F19A
:101B300001FB02F29B1ADBB2002B1FD100237B7545
:101B400022E0FA7DBB7D42FA03F303F00103002B90
:101B500005D03A88B988FB881846FFF7BBFEFB889A
:101B60000133FB80FA883B8AD21AFB7B9A4205D16B
:101B70003B8AFB80BB880133BB8005E0BB7D013322
:101B8000BB75BB7D072BB7D97B8A01337B827A8AF1
:101B9000BB899A4280D300E000BF1C37BD4690BD90
:101BA00000940008F0990008C0AB000880B483B02E
:101BB00000AF0346FB71FB791B09DBB203F00303A3
:101BC000DBB2002B07D00A4B4FF4A0721A80084BEF
:101BD000F0225A8006E0064BF0221A80044B4FF4A4
:101BE000A0725A8000BF0C37BD465DF8047B704779
:101BF0002C02002080B500AF00224FF40051AA480B
:101C000003F0BEFA4FF4FA7002F084FA01224FF4A6
:101C10000051A54803F0B4FA4FF4FA7002F07AFAD2
:101C20000020FFF7C3FFD320FFF76EFDFFF78CFD09
:101C300003461A469D4B9A80FFF786FD03461A46D7
:101C40009A4B9A80FFF780FD03461A46974B9A807D
:101C5000964B9B881B029AB2944B9A80FFF774FDB7
:101C600003461A46914B9B8813439AB28F4B9A8036
:101C7000CF20FFF749FD0020FFF756FDC120FFF7F9
:101C800053FD3020FFF750FDED20FFF73DFD6420B0
:101C9000FFF74AFD0320FFF747FD1220FFF744FD41
:101CA0008120FFF741FDE820FFF72EFD8520FFF79B
:101CB0003BFD1020FFF738FD7A20FFF735FDCB20E4
:101CC000FFF722FD3920FFF72FFD2C20FFF72CFD19
:101CD0000020FFF729FD3420FFF726FD0220FFF743
:101CE00023FDF720FFF710FD2020FFF71DFDEA2060
:101CF000FFF70AFD0020FFF717FD0020FFF714FD96
:101D0000C020FFF701FD1B20FFF70EFDC120FFF7EC
:101D1000FBFC0120FFF708FDC520FFF7F5FC302094
:101D2000FFF702FD3020FFF7FFFCC720FFF7ECFCB8
:101D3000B720FFF7F9FC3620FFF7E6FC0820FFF795
:101D4000F3FC3A20FFF7E0FC5520FFF7EDFCB12053
:101D5000FFF7DAFC0020FFF7E7FC1A20FFF7E4FCAE
:101D6000B620FFF7D1FC0A20FFF7DEFCA220FFF728
:101D7000DBFCF220FFF7C8FC0020FFF7D5FC262093
:101D8000FFF7C2FC0120FFF7CFFCE020FFF7BCFC0F
:101D90000F20FFF7C9FC2A20FFF7C6FC2820FFF719
:101DA000C3FC0820FFF7C0FC0E20FFF7BDFC082095
:101DB000FFF7BAFC5420FFF7B7FCA920FFF7B4FCEB
:101DC0004320FFF7B1FC0A20FFF7AEFC0F20FFF71E
:101DD000ABFC0020FFF7A8FC0020FFF7A5FC0020CB
:101DE000FFF7A2FC0020FFF79FFCE120FFF78CFC2F
:101DF0000020FFF799FC1520FFF796FC1720FFF74E
:101E000093FC0720FFF790FC1120FFF78DFC0620C4
:101E1000FFF78AFC2B20FFF787FC5620FFF784FC96
:101E20003C20FFF781FC0520FFF77EFC1020FFF728
:101E30007BFC0F20FFF778FC3F20FFF775FC3F206D
:101E4000FFF772FC0F20FFF76FFC2B20FFF75CFC05
:101E50000020FFF769FC0020FFF766FC0120FFF778
:101E600063FC3F20FFF760FC2A20FFF74DFC0020B9
:101E7000FFF75AFC0020FFF757FC0020FFF754FC47
:101E8000EF20FFF751FC1120FFF73EFC782002F015
:101E900041F92920FFF738FC01224FF480710448F2
:101EA00003F06EF900BF80BD000802402C02002044
:101EB0000000024080B584B000AFF860B9607A607D
:101EC0003B60FB689AB27B689BB2134498B2BB68D4
:101ED0009AB23B689BB213449BB23A8B1946FFF708
:101EE000F9FCFB689AB27B689BB2D31A98B2BB68C4
:101EF0009AB23B689BB213449BB23A8B1946FFF7E8
:101F0000E9FCFB689AB27B689BB2134498B2BB6849
:101F10009AB23B689BB2D31A9BB23A8B1946FFF731
:101F2000D9FCFB689AB27B689BB2D31A98B2BB68A3
:101F30009AB23B689BB2D31A9BB23A8B1946FFF711
:101F4000C9FCFB689AB23B689BB2134498B2BB6869
:101F50009AB27B689BB213449BB23A8B1946FFF747
:101F6000B9FCFB689AB23B689BB2D31A98B2BB68C3
:101F70009AB27B689BB213449BB23A8B1946FFF727
:101F8000A9FCFB689AB23B689BB2134498B2BB6849
:101F90009AB27B689BB2D31A9BB23A8B1946FFF771
:101FA00099FCFB689AB23B689BB2D31A98B2BB68A3
:101FB0009AB27B689BB2D31A9BB23A8B1946FFF751
:101FC00089FC00BF1037BD4680BD80B58AB002AF26
:101FD000F860B9603B601346FB800023FB613B68FF
:101FE000BB613B685B00C3F103033B61BB6A002B31
:101FF0004FD029E0FB697B610AE0FB8800937B6995
:10200000FA69B968F868FFF755FF7B6901337B61AE
:102010007A69BB699A42F0DD3B69002B06DAFB69FD
:102020009A003B69134406333B610AE0FA69BB69D5
:10203000D31A9A003B6913440A333B61BB69013BE5
:10204000BB61FB690133FB61FA69BB699A42D1DD6F
:1020500023E0FB880093BB69FA69B968F868FFF769
:1020600029FF3B69002B06DAFB699A003B691344A0
:1020700006333B610AE0FA69BB69D31A9A003B69EF
:1020800013440A333B61BB69013BBB61FB6901330C
:10209000FB61FA69BB699A42DBDD00BF2037BD46B0
:1020A00080BD000090B58BB004AFBA601A460346FD
:1020B000FB810B46BB811346FB80FB89BB8200235F
:1020C000FB7548E0FB7D002B45D1FA89264B1B8828
:1020D000194697F82C305B08DBB2CB1A9A423FDCEA
:1020E000BA89214B5B88194697F82C30CB1A9A4253
:1020F00036DCBB681B78802B02D90123FB752AE0F4
:10210000BB681B780D2B0BD197F82C309AB2BB898A
:102110001344BB81BB8AFB81BB680133BB6017E002
:10212000BB681A78FC88B989F88997F8303002932F
:1021300097F82C3001933B8D00932346FFF766FC04
:1021400097F82C305B08DBB21A46FB891344FB81FD
:10215000BB680133BB60BB681B78002BB2D100E0C9
:1021600000BF1C37BD4690BD2C02002080B500AFDB
:102170003F4B1B88DBB29AB23D4B1A803D4B1B682C
:102180003D4AD35C1B021AB2394B1B881BB2134366
:102190001BB29AB2364B1A80364B1B68032B47D8BA
:1021A00001A252F823F000BFB9210008D72100088E
:1021B000F5210008132200082D4B1B8843F0B003C3
:1021C0009AB22B4B1A802A4B1B8823F040039AB2F9
:1021D000274B1A802DE0264B1B8843F0D0039AB280
:1021E000234B1A80224B1B8823F020039AB2204BEA
:1021F0001A801EE01E4B1B8843F0E0039AB21C4B72
:102200001A801B4B1B8823F010039AB2184B1A80BC
:102210000FE0174B1B8843F070039AB2144B1A80DF
:10222000134B1B8823F080039AB2114B1A8000E0F5
:1022300000BF104B1B6801335A4203F0030302F046
:10224000030258BF53420B4A1360002240210B483F
:1022500002F096FF012302220549094804F077FCA9
:1022600001224021054802F08BFF00BF80BD00BF66
:10227000040000203402002000000020001802406A
:102280006C05002080B500AF01F0D2FE00F032F8FE
:10229000FFF7AEF800F0A0FE00F08CFCFEF7D8FFD0
:1022A000FFF7BCF900F0E4FEFEF7B2FFFEF7E4FD35
:1022B00000F042FE00F088F801F07AFA0020FFF703
:1022C000A1FA01F057FE0A4B1B78022B0CD0022B0F
:1022D000F7DC002B02D0012B03D008E000F084F8DB
:1022E00005E000F0EFF802E000F046F900BFE8E793
:1022F0003802002080B594B000AF07F120033022EF
:102300000021184606F037F807F10C0300221A6086
:102310005A609A60DA601A610023BB60284B1B6C1C
:10232000274A43F080531364254B1B6C03F0805302
:10233000BB60BB6800237B60224B1B68214A43F4CF
:10234000804313601F4B1B6803F480437B607B68F2
:1023500002233B620123FB6210233B630223BB6326
:102360000023FB6308233B64A8237B640223BB6434
:102370000423FB6407F12003184603F0DBFE034649
:10238000002B01D000F0A2FB0F23FB6002233B6176
:1023900000237B614FF4A053BB614FF4A053FB615A
:1023A00007F10C030521184604F03CF90346002B05
:1023B00001D000F08BFB00BF5037BD4680BD00BF91
:1023C000003802400070004080B500AF00F084FB90
:1023D000FEF712FFFFF70EFC01F0BCFDFA2000F043
:1023E00089FB00BF80BD000080B58AB004AF00202B
:1023F000FFF708FA012302931823019300230093A7
:102400004FF4FC63254AA0213C20FFF74BFE1F231D
:1024100000933C23B4220A213C20FFF725FA012334
:102420000293182301931F2300934FF6FF731C4A56
:1024300014215A20FFF736FE3C23B4220A213C2007
:1024400000F014FB0346002B24D0164B03221A6025
:10245000154B164A92E8030083E80300124B144A16
:10246000083392E8030083E803000F4B114A10334E
:1024700092E8030083E803000F4B03221A7000F078
:10248000D1FA0E4B00221A700D4B01221A70002057
:10249000FFF7B8F900BF1837BD4680BDD0920008DD
:1024A000DC920008080000203C020020E4920008B2
:1024B000EC920008F4920008060000206405002059
:1024C0003802002080B500AF274B1B88012B10D1AC
:1024D000254B00221A8000F08DF800F0D7F8234B2E
:1024E0001B78002B03D0224B02221A7001E000F06F
:1024F00023F94FF4967350224FF48271282000F094
:10250000B5FA0346002B02D01A4B02221A704FF480
:10251000967382224FF482715A2000F0A7FA034684
:10252000002B02D0134B00221A704FF49673B42282
:102530004FF482718C2000F099FA0346002B02D0F0
:102540000C4B03221A704FF49673E6224FF48271FB
:10255000BE2000F08BFA0346002B02D0054B01226F
:102560001A7000BF80BD00BF660500206405002012
:10257000380200200600002080B584B004AF00209F
:10258000FFF740F9012302931823019300230093DE
:102590004FF47843144AA0213C20FFF783FD1F230A
:1025A00000933C23B4220A213C20FFF75DF901236C
:1025B0000293182301931F2300934FF6FF730B4AD6
:1025C00014215A20FFF76EFD3C23B4220A213C203F
:1025D00000F04CFA0346002B02D0054B00221A7083
:1025E00000BFBD4680BD00BFFC92000808930008F4
:1025F0003802002080B483B000AF214B1B68013B40
:102600007B600FE07B685A1E1E487B681D49DB001B
:102610000344D2000A4492E8030083E803007B6885
:10262000013B7B607B68002BECDC174B1B78002B9D
:1026300004D1144B5B68013B124A5360124B1B7868
:10264000012B04D10F4B5B6801330E4A53600E4BD4
:102650001B78022B04D10B4B1B68013B094A13600A
:10266000094B1B78032B04D1064B1B680133054A29
:10267000136000BF0C37BD465DF8047B704700BF98
:10268000080000203C0200200600002080B582B037
:1026900000AF254B1A68254B1B689A420CD1224B80
:1026A0005A68224B5B689A4206D1214B1B68013362
:1026B0001F4A136000F0B6F91B4B1B68002B0BDBA5
:1026C000194B1B68172B07DC174B5B68002B03DBD0
:1026D000154B5B681F2B02DD164B01221A7001237C
:1026E0007B6017E0104B1A680F497B6851F8333054
:1026F0009A420CD10C4B5A680B497B68DB000B44A7
:102700005B689A4203D10B4B01221A7008E07B6888
:1027100001337B60064B1B687A689A42E2DB00BF9C
:1027200000BF0837BD4680BD3C0200205C0500208C
:10273000080000206405002090B58BB004AF002095
:10274000FFF760F800237B6133E0A24A7B6952F80F
:1027500033309BB21A46920013445B0098B29D4AF4
:102760007B69DB0013445B689BB21A4692001344FA
:102770005B0099B2974A7B6952F8333001339BB2C0
:102780001A46920013445B009AB2924C7B69DB00BC
:1027900023445B6801339BB21C46A40023445B00C6
:1027A0009BB24FF4FC640094FFF75EF87B69013341
:1027B0007B61894B1B687A699A42C6DB874B1B6831
:1027C0009BB21A46920013445B0098B2834B5B683D
:1027D0009BB21A46920013445B0099B27F4B1B6870
:1027E00001339BB21A46920013445B009AB27B4BB2
:1027F0005B6801339BB21C46A40023445B009BB280
:102800004FF478440094FFF72FF828233B612823E6
:10281000FB604FF48273BB6028237B600A233B601C
:102820007B6898B2BB6899B27B689AB23B699BB2ED
:1028300013449CB2BB689AB2FB689BB213449BB230
:102840001F2200922246FFF70FF87B689BB20A33E3
:1028500098B2BB689BB20A3399B201230293182342
:1028600001931F2300934FF6FF735D4AFFF71AFC95
:102870007B689AB23B699BB213449AB23B689BB2A5
:10288000134498B2BB6899B23B699BB25B009AB2A1
:102890007B689BB213449AB23B689BB213449CB2D0
:1028A000BB689AB2FB689BB213449BB21F22009292
:1028B0002246FEF7D9FF7B689AB23B699BB213446C
:1028C0009AB23B689BB213449BB20A3398B2BB687E
:1028D0009BB20A3399B201230293182301931F2359
:1028E00000934FF6FF733F4AFFF7DCFB3A693B6802
:1028F00013449BB25B009AB27B689BB2134498B2BC
:10290000BB6899B23B699BB21A46520013449AB213
:102910003B689BB25B009BB213449AB27B689BB24C
:1029200013449CB2BB689AB2FB689BB213449BB23F
:102930001F2200922246FEF797FF3A693B68134434
:102940009BB25B009AB27B689BB213449BB20A3382
:1029500098B2BB689BB20A3399B201230293182341
:1029600001931F2300934FF6FF731F4AFFF79AFB53
:102970003A693B6813449BB21A46520013449AB218
:102980007B689BB2134498B2BB6899B23B699BB217
:102990009B009AB23B689BB21C46640023449BB2E6
:1029A00013449AB27B689BB213449CB2BB689AB240
:1029B000FB689BB213449BB21F2200922246FEF793
:1029C00053FF3A693B6813449BB21A4652001344C2
:1029D0009AB20BE03C020020080000205C050020B9
:1029E0001093000814930008189300087B689BB2AA
:1029F00013449BB20A3398B2BB689BB20A3399B2B4
:102A000001230293182301931F2300934FF6FF73B2
:102A1000034AFFF747FB00BF1C37BD4690BD00BF10
:102A20001C93000880B500AF05F062FB01460D4B1A
:102A300083FB01239A10CB17D21A13465B00134471
:102A4000DB00CA1A084B1A6005F052FB03465A42D3
:102A500003F01F0302F01F0258BF5342024A5360A3
:102A600000BF80BDABAAAA2A5C05002080B584B057
:102A700000AFF860B9607A603B6001F085FA034608
:102A8000002B1DD001F092FA03461A46FB689342D0
:102A900016DA01F08BFA03461A467B6893420FDD83
:102AA00001F090FA03461A46BB68934208DA01F037
:102AB00089FA03461A463B68934201DD012300E090
:102AC0000023DBB218461037BD4680BD80B400AF8E
:102AD00072B600BF00BFFDE780B500AF034804F049
:102AE00039FB034804F0CEFA00BF80BD1006002079
:102AF000C805002080B483B000AF0346FB80084ABD
:102B0000FB881380064B1A88064B1A80064B00225E
:102B10001A8000BF0C37BD465DF8047B704700BFCC
:102B20006A050020680500206605002080B582B097
:102B300000AF78607B681B68B3F1804F16D10D4BF6
:102B40001B88002B10D00B4B1B88013B9AB2094B02
:102B50001A80084B1B88002B06D1074B01221A80D4
:102B6000064B1A88034B1A80FFF700FB00BF08379B
:102B7000BD4680BD68050020660500206A0500206E
:102B800080B483B000AF0346FB80094B1B68002272
:102B90005A6200BF064B1B685A6AFB889A42F9D3F7
:102BA00000BF00BF0C37BD465DF8047B704700BF17
:102BB000C805002080B500AF174B184A1A60164BA5
:102BC0004FF482725A60144B00229A60124B00221A
:102BD000DA60114B00221A610F4B00225A610E4B32
:102BE0004FF400729A610C4B0022DA610A4B00220A
:102BF0001A62094B00225A62074B00229A62064B66
:102C00000A22DA62044803F019FF0346002B01D0C0
:102C1000FFF75CFF00BF80BD6C0500200030014065
:102C200080B58AB000AF786007F1140300221A6003
:102C30005A609A60DA601A617B681B68194A93428D
:102C40002BD100233B61184B5B6C174A43F4805334
:102C50005364154B5B6C03F480533B613B69002369
:102C6000FB60114B1B6B104A43F0020313630E4BC6
:102C70001B6B03F00203FB60FB6838237B610223BC
:102C8000BB610023FB6103233B6205237B6207F1E9
:102C900014031946054802F0BFF800BF2837BD46A7
:102CA00080BD00BF003001400038024000040240F7
:102CB00080B483B000AF00237B60104B5B6C0F4A85
:102CC00043F4804353640D4B5B6C03F480437B609F
:102CD0007B6800233B60094B1B6C084A43F0805320
:102CE0001364064B1B6C03F080533B603B6800BFD2
:102CF0000C37BD465DF8047B704700BF00380240CA
:102D000080B400AF00BFFDE780B400AF00BFFDE7B7
:102D100080B400AF00BFFDE780B400AF00BFFDE7A7
:102D200080B400AF00BFFDE780B400AF00BFBD4678
:102D30005DF8047B704780B400AF00BFBD465DF80E
:102D4000047B704780B400AF00BFBD465DF8047BD4
:102D5000704780B500AF01F0BDF900BF80BD000035
:102D600080B500AF024804F0BEFA00BF80BD00BFCE
:102D70001006002080B500AF024801F011FE00BF30
:102D800080BD00BF2401002080B400AF012318469D
:102D9000BD465DF8047B704780B582B000AF7860B7
:102DA000396005F037FB034616221A604FF0FF33F7
:102DB00018460837BD4680BD80B582B000AF786048
:102DC0004FF0FF317868FFF7E7FF00BFFDE780B500
:102DD00086B000AFF860B9607A6000237B610AE0DA
:102DE000AFF300800146BB685A1CBA60CAB21A70C1
:102DF0007B6901337B617A697B689A42F0DB7B688F
:102E000018461837BD4680BD80B586B000AFF86063
:102E1000B9607A6000237B6109E0BB685A1CBA6024
:102E20001B781846AFF300807B6901337B617A69B8
:102E30007B689A42F1DB7B6818461837BD4680BD37
:102E400080B483B000AF78604FF0FF3318460C3782
:102E5000BD465DF8047B704780B483B000AF7860F6
:102E600039603B684FF400525A60002318460C3713
:102E7000BD465DF8047B704780B483B000AF7860D6
:102E8000012318460C37BD465DF8047B704780B4BB
:102E900085B000AFF860B9607A6000231846143737
:102EA000BD465DF8047B704780B586B000AF7860A2
:102EB000144A154BD31A7B617B693B61134B1B682A
:102EC000002B02D1114B124A1A60104B1A687B6812
:102ED00013443A699A4207D205F09CFA03460C2241
:102EE0001A604FF0FF3309E0084B1B68FB60074B8B
:102EF0001A687B681344054A1360FB681846183744
:102F0000BD4680BD0000022000040000C405002072
:102F1000F007002080B400AF064BD3F88830054A94
:102F200043F47003C2F8883000BFBD465DF8047BEF
:102F3000704700BF00ED00E080B586B000AF07F13C
:102F4000080300221A605A609A60DA603B46002249
:102F50001A605A601E4B1F4A1A601D4B53225A605A
:102F60001B4B00229A601A4B4FF6FF72DA60184B27
:102F700000221A61164B00225A61154B00229A61F9
:102F8000134804F02FF80346002B01D0FFF79EFDF5
:102F90004FF48053BB6007F1080319460C4804F056
:102FA0006DFB0346002B01D0FFF790FD00233B6033
:102FB00000237B603B461946054804F039FF034671
:102FC000002B01D0FFF782FD00BF1837BD4680BD42
:102FD000C80500200000014080B586B000AF07F1B1
:102FE000080300221A605A609A60DA603B460022A9
:102FF0001A605A601D4B4FF080421A601B4B40F222
:1030000047325A60194B00229A60184B6322DA60EB
:10301000164B00221A61154B00229A61134803F0E7
:10302000E1FF0346002B01D0FFF750FD4FF4805322
:10303000BB6007F1080319460C4804F01FFB034668
:10304000002B01D0FFF742FD00233B6000237B6093
:103050003B461946054804F0EBFE0346002B01D021
:10306000FFF734FD00BF1837BD4680BD10060020B5
:1030700080B588B000AF3B1D00221A605A609A608C
:10308000DA601A615A619A611E4B1F4A1A601D4B21
:1030900040F247325A601B4B00229A60194B632260
:1030A000DA60184B00221A61164B00229A6115480B
:1030B00003F098FF0346002B01D0FFF707FD1148EE
:1030C00004F0B8F80346002B01D0FFF7FFFC6023A3
:1030D0007B600023BB600023FB6000237B613B1D02
:1030E00000221946074804F007FA0346002B01D0D6
:1030F000FFF7ECFC034800F05BF800BF2037BD464B
:1031000080BD00BF58060020001C004080B586B07E
:1031100000AF78607B681B68224A93420ED100237F
:103120007B61214B5B6C204A43F0010353641E4BCF
:103130005B6C03F001037B617B692EE07B681B689D
:10314000B3F1804F16D100233B61174B1B6C164A1D
:1031500043F001031364144B1B6C03F001033B6148
:103160003B69002200211C2001F035FB1C2001F0EE
:103170004EFB12E07B681B680C4A93420DD1002382
:10318000FB60094B1B6C084A43F080031364064B39
:103190001B6C03F08003FB60FB6800BF1837BD4663
:1031A00080BD00BF0000014000380240001C00400C
:1031B00080B588B000AF786007F10C0300221A6078
:1031C0005A609A60DA601A617B681B68124A9342FF
:1031D0001ED10023BB60114B1B6B104A43F0200330
:1031E00013630E4B1B6B03F02003BB60BB684FF4F3
:1031F0008073FB6002233B6100237B610023BB6182
:103200000923FB6107F10C031946054801F004FE90
:1032100000BF2037BD4680BD001C00400038024082
:103220000014024080B584B000AF0346FB71002358
:10323000FB730023FB7325E097F90730002B06DAB8
:1032400001224FF40071134801F09AFF05E00022BB
:103250004FF400710F4801F093FFFB795B00FB71A5
:1032600000224FF480710C4801F08AFF0120FFF723
:1032700087FC01224FF48071074801F081FFFB7B3E
:103280000133FB73FB7B072BD6D900BF00BF103780
:10329000BD4680BD000802400018024080B584B0E1
:1032A00000AF0346FB710023FB730023BB810022A8
:1032B0004FF480712F4801F063FF00224FF400713A
:1032C0002D4801F05DFF002280212A4801F058FFBF
:1032D000FB791846FFF7A6FF0620FFF751FC0022F6
:1032E0004FF48071234801F04BFF0120FFF748FCA9
:1032F00001224FF480711F4801F042FF0120FFF7C7
:103300003FFC00224FF480711A4801F039FF00237E
:10331000FB731FE0BB895B00BB8100224FF480710F
:10332000144801F02DFF0120FFF72AFC01224FF481
:103330008071104801F024FF4FF480510E4801F0D5
:1033400007FF0346002B02D0BB890133BB81FB7B07
:103350000133FB73FB7B0F2BDCD9BB891B09BB81C2
:1033600001228021034801F00BFFBB89184610376A
:10337000BD4680BD001802400008024090B589B0EB
:1033800000AF0346FB7100237B830023FB830EE029
:10339000FC8BFB791846FFF781FF03461A46630052
:1033A00020333B4423F8142CFB8B0133FB83FB8B32
:1033B000042BEDD90023FB8335E0FB8B0133BB836A
:1033C0002BE0FB8B5B0020333B4433F8142CBB8B8E
:1033D0005B0020333B4433F8143C9A421AD9FB8BF0
:1033E0005B0020333B4433F8143C3B83BB8BFA8BAC
:1033F0005B0020333B4433F8141C530020333B4420
:103400000A4623F8142CBB8B5B0020333B443A8BD9
:1034100023F8142CBB8B0133BB83BB8B042BD0D97B
:10342000FB8B0133FB83FB8B032BC6D900237B83F0
:103430000123FB830BE0FB8B5B0020333B4433F821
:10344000142C7B8B13447B83FB8B0133FB83FB8B23
:10345000032BF0D97B8B054AA2FB03235B083B833C
:103460003B8B18462437BD4690BD00BFABAAAAAA25
:1034700080B584B000AF786039600C4B1B7818467B
:10348000FFF77CFF0346FB81094B1B781846FFF7CB
:1034900075FF0346BB817B68FA891A803B68BA894D
:1034A0001A80012318461037BD4680BD4400002015
:1034B0004500002080B586B000AF7860396007F124
:1034C000120207F1140311461846FFF7D1FF034615
:1034D000FB75FB7D002B01D1002349E007F10E02B3
:1034E00007F1100311461846FFF7C2FF0346FB75AC
:1034F000FB7D002B01D100233AE03A8ABB8A9A4235
:1035000004D83B8A6333BA8A934208DABA8A3B8A80
:103510009A422CD8BB8A63333A8A934227DBFA89D2
:103520007B8A9A4204D8FB8963337A8A934208DA09
:103530007A8AFB899A421AD87B8A6333FA89934242
:1035400015DBBB8A1A463B8A1344DA0F13445B101F
:103550009AB27B681A807B8A1A46FB891344DA0F79
:1035600013445B109AB23B681A80012300E00023E9
:1035700018461837BD4680BD90B585B002AF0346EA
:10358000FB800B46BB8013467B80FB880C3B98B2CC
:10359000FB880D339AB2BC88B9887B880093234698
:1035A000FEF7AFF9BB880C3B99B2BB880D339CB2D8
:1035B000FA88F8887B8800932346FEF7A2F9FB88F7
:1035C000013398B2BB8801339BB27A881946FEF763
:1035D00081F9FB88013B98B2BB8801339BB27A88A2
:1035E0001946FEF777F9FB88013398B2BB88013B97
:1035F0009BB27A881946FEF76DF9FB88013B98B2B9
:10360000BB88013B9BB27A881946FEF763F9F888BC
:10361000B9887A88002300930623FEF7D6FC00BF02
:103620000C37BD4690BD000080B582B000AF0346A8
:10363000FB714FF48071434801F08AFD0346002B73
:1036400057D1FB79002B04D03F494048FFF732FFA8
:103650003CE03D493D48FFF72DFF0346002B35D0A8
:103660003B4B93ED097A3A4B9B8907EE903AF8EE83
:10367000E77A27EE277A364BB3F92C3007EE903AEB
:10368000F8EEE77A77EE277AFCEEE77A17EE903AD3
:103690009AB22F4B9A812E4B93ED0A7A2C4BDB8AF0
:1036A00007EE903AF8EEE77A27EE277A284BB3F93F
:1036B0002E3007EE903AF8EEE77A77EE277AFCEEB6
:1036C000E77A17EE903A9AB2214BDA82204B93F8C0
:1036D00020305BB2002B2ADB1D4BC02283F8202058
:1036E0001B4B9A891A4B9A82194BDA8A184BDA8348
:1036F0001DE0174B93F820305BB2002B09DA144B16
:1037000093F8203003F07F03DAB2114B83F82020C6
:103710000DE00F4B00229A820D4B0022DA830C4BF6
:103720004FF6FF729A810A4B4FF6FF72DA82084B0E
:1037300093F8203023F07F03DBB218460837BD46EC
:1037400080BD00BF00080240260000201C000020B1
:103750001000002080B500AF0E2205490020FDF7C3
:103760002BFD00210E20FDF7C7FC00BF80BD00BF70
:103770003400002080B582B000AF0023FB710E2022
:10378000FDF79EFC0346FB71FB79002B06D10E2250
:1037900005490020FDF7F1FC012300E00023184655
:1037A0000837BD4680BD00BF340000200000000087
:1037B00080B58EB004AF002387F82730002387F848
:1037C00027305F4B1A885E4B5B884FF6FF71009184
:1037D00000210020FEF748F80023029310230193F4
:1037E0004FF6FF7300934FF47843564A2821052083
:1037F000FEF758FC00230293102301934FF6FF734A
:1038000000934FF47843504A41210520FEF74AFCCB
:1038100000230293102301934FF6FF7300934FF49C
:1038200078434A4A5A210520FEF73CFC4FF478427F
:1038300014211420FFF7A0FE454B002283F820201E
:10384000434B4FF000025A62322000F063FC404BC1
:103850005B68012098473E4B93F8203003F0C0038B
:10386000402BF1D13A4B93F8203023F04003DAB2E9
:10387000374B83F8202097F82730354A92899B00F0
:1038800028333B4423F8282C97F82730304AD28A33
:103890009B0028333B4423F8262C97F8273001332C
:1038A00087F8273097F82730013B032BCCD801A2AB
:1038B00052F823F0C5380008E7380008113900082D
:1038C000553900084FF6FF7214211420FFF754FEFB
:1038D0001B4B1B88143B9BB24FF4784214211846B3
:1038E000FFF74AFE19E3164B1B88143B9BB24FF6B9
:1038F000FF7214211846FFF73FFE114B5B88143B03
:103900009BB24FF4784219461420FFF735FE04E3CA
:103910000B4B5B88143B9BB24FF6FF721946142089
:10392000FFF72AFE064B1B88143B98B2044B5B88BA
:10393000143B9BB24FF478421946FFF71DFEECE2B0
:103940002C020020209300083C93000854930008A8
:10395000100000203B881A46BB88D31A002BB8BF42
:103960005B423B627B881A46FB88D31A002BB8BFA8
:103970005B42FB613B6A03FB03F33B62FB6903FBB6
:1039800003F3FB613A6AFB6913441846FCF7B2FD86
:1039900002460B4643EC102B05F088FB53EC102B32
:1039A00010461946FDF7D0F803467B833B891A463B
:1039B000BB89D31A002BB8BF5B423B627B891A4696
:1039C000FB89D31A002BB8BF5B42FB613B6A03FB48
:1039D00003F33B62FB6903FB03F3FB613A6AFB6998
:1039E00013441846FCF786FD02460B4643EC102BA9
:1039F00005F05CFB53EC102B10461946FDF7A4F8BC
:103A000003463B837B8B07EE903AB8EE677A3B8B9D
:103A100007EE903AF8EEE77AC7EE276A16EE900ABC
:103A2000FCF78AFD02460B46C7E9042384A3D3E9C9
:103A30000023D7E90401FDF749F80346002B0FD115
:103A400081A3D3E90023D7E90401FDF75DF803461C
:103A5000002B05D17B8B002B02D03B8B002B36D16A
:103A6000002387F827307A4B1B88143B98B2784B99
:103A70005B88143B9BB24FF6FF721946FFF77CFD43
:103A80004FF4784214211420FFF776FD00230293AF
:103A9000102301934FF6FF7300934FF478436D4A60
:103AA00028210520FEF7FEFA00230293102301933C
:103AB0004FF6FF7300934FF47843674A3C2105208B
:103AC000FEF7F0FA4FF47A7000F024FB25E23B8811
:103AD0001A463B89D31A002BB8BF5B423B627B88F6
:103AE0001A467B89D31A002BB8BF5B42FB613B6A45
:103AF00003FB03F33B62FB6903FB03F3FB613A6ADD
:103B0000FB6913441846FCF7F5FC02460B4643ECF0
:103B1000102B05F0CBFA53EC102B10461946FDF78D
:103B200013F803467B83BB881A46BB89D31A002B44
:103B3000B8BF5B423B62FB881A46FB89D31A002B55
:103B4000B8BF5B42FB613B6A03FB03F33B62FB696B
:103B500003FB03F3FB613A6AFB6913441846FCF765
:103B6000C9FC02460B4643EC102B05F09FFA53ECC0
:103B7000102B10461946FCF7E7FF03463B837B8B6F
:103B800007EE903AB8EE677A3B8B07EE903AF8EE84
:103B9000E77AC7EE276A16EE900AFCF7CDFC0246DC
:103BA0000B46C7E9042326A3D3E90023D7E9040180
:103BB000FCF78CFF0346002B09D123A3D3E9002394
:103BC000D7E90401FCF7A0FF0346002B46D00023F1
:103BD00087F827301E4B1B88143B98B21C4B5B8820
:103BE000143B9BB24FF6FF721946FFF7C5FC4FF42A
:103BF000784214211420FFF7BFFC00230293102306
:103C000001934FF6FF7300934FF47843114A282134
:103C10000520FEF747FA00230293102301934FF685
:103C2000FF7300934FF478430B4A3C210520FEF7C5
:103C300039FA4FF47A7000F06DFA6EE1AFF300805C
:103C4000666666666666EE3FCDCCCCCCCCCCF03FEB
:103C50002C0200206893000888930008BB881A464D
:103C60003B89D31A002BB8BF5B423B62FB881A46E4
:103C70007B89D31A002BB8BF5B42FB613B6A03FB15
:103C800003F33B62FB6903FB03F3FB613A6AFB69E5
:103C900013441846FCF72EFC02460B4643EC102B4F
:103CA00005F004FA53EC102B10461946FCF74CFFB4
:103CB00003467B833B881A46BB89D31A002BB8BFC7
:103CC0005B423B627B881A46FB89D31A002BB8BF44
:103CD0005B42FB613B6A03FB03F33B62FB6903FB53
:103CE00003F3FB613A6AFB6913441846FCF702FCD4
:103CF00002460B4643EC102B05F0D8F953EC102B81
:103D000010461946FCF720FF03463B837B8B07EEEA
:103D1000903AB8EE677A3B8B07EE903AF8EEE77A86
:103D2000C7EE276A16EE900AFCF706FC02460B4621
:103D3000C7E9042383A3D3E90023D7E90401FCF7EF
:103D4000C5FE0346002B09D180A3D3E90023D7E9A0
:103D50000401FCF7D9FE0346002B36D0002387F878
:103D60002730714B1B88143B98B26F4B5B88143B18
:103D70009BB24FF6FF721946FFF7FEFB4FF47842F5
:103D800014211420FFF7F8FB002302931023019362
:103D90004FF6FF7300934FF47843644A28210520BF
:103DA000FEF780F900230293102301934FF6FF736F
:103DB00000934FF478435E4A3C210520FEF772F9E8
:103DC0004FF47A7000F0A6F9A7E0574B1B88283B08
:103DD00007EE903AF8EEE76ABB881A463B88D31A9A
:103DE00007EE903AB8EEE77AC6EE877A514BC3ED0C
:103DF000097A4D4B1B8807EE903AB8EEE77A4D4BA7
:103E0000D3ED096ABB881A463B88134407EE903A03
:103E1000F8EEE77A66EEA77A37EE677AF0EE006A98
:103E2000C7EE267AFDEEE77A17EE903A1AB2414BCA
:103E30009A853D4B5B88283B07EE903AF8EEE76A9F
:103E40007B891A467B88D31A07EE903AB8EEE77A58
:103E5000C6EE877A374BC3ED0A7A334B5B8807EEA1
:103E6000903AB8EEE77A334BD3ED0A6A7B891A466B
:103E70007B88134407EE903AF8EEE77A66EEA77A6D
:103E800037EE677AF0EE006AC7EE267AFDEEE77A43
:103E900017EE903A1AB2274BDA85234B1B88143B56
:103EA00098B2214B5B88143B9BB24FF6FF721946C8
:103EB000FFF762FB00230293102301934FF6FF7379
:103EC00000934FF478431C4A28210520FEF7EAF8B6
:103ED00000230293102301934FF6FF7300934FF4D6
:103EE0007843164A3C210520FEF7DCF84FF47A703F
:103EF00000F010F900230293102301934FF6FF7393
:103F000000934FF478430E4A28210520FEF7CAF8A3
:103F1000FFF720FCFFF72EFC00E095E42837BD46B4
:103F200080BD00BFAFF300802C0200206893000822
:103F30008893000810000020A8930008C893000888
:103F4000E8930008666666666666EE3FCDCCCCCC2C
:103F5000CCCCF03F80B500AF04490548FFF788FAA4
:103F6000FDF7A8F8FFF706FC00BF80BD2600002083
:103F70001C00002080B500AF024B5B680020984712
:103F800000BF80BD1000002080B500AF4FF48071ED
:103F9000054801F0DDF80346002B0CBF0123002388
:103FA000DBB2184680BD00BF0008024080B400AFFD
:103FB000034B9B891846BD465DF8047B704700BFE4
:103FC0001000002080B400AF034BDB8A1846BD46CA
:103FD0005DF8047B704700BF10000020DFF834D08C
:103FE0000D480E490E4A002302E0D458C450043351
:103FF000C4188C42F9D30B4A0B4C002301E0136028
:104000000432A242FBD3FEF785FF04F009FAFEF763
:1040100039F970470000022000000020C000002095
:1040200090C40008C0000020F0070020FEE7000058
:1040300080B500AF0E4B1B680D4A43F4007313604C
:104040000B4B1B680A4A43F480631360084B1B68E0
:10405000074A43F480731360032000F0B1FB0F2084
:1040600000F008F8FEF724FE0023184680BD00BFCC
:10407000003C024080B582B000AF7860124B1A68F5
:10408000124B1B7819464FF47A73B3FBF1F3B2FB72
:10409000F3F3184600F0C9FB0346002B01D00123BF
:1040A0000EE07B680F2B0AD8002279684FF0FF30B2
:1040B00000F091FB064A7B681360002300E00123B7
:1040C00018460837BD4680BD0C0000204C0000207B
:1040D0004800002080B400AF064B1B781A46064B00
:1040E0001B681344044A136000BFBD465DF8047B9F
:1040F000704700BF4C000020A006002080B400AF35
:10410000034B1B681846BD465DF8047B704700BF33
:10411000A006002080B584B000AF7860FFF7EEFF06
:10412000B8607B68FB60FB68B3F1FF3F05D00A4BCA
:104130001B781A46FB681344FB6000BFFFF7DEFFE5
:104140000246BB68D31AFA689A42F7D800BF00BF8C
:104150001037BD4680BD00BF4C00002080B584B044
:1041600000AF78600023FB737B68002B01D1012333
:1041700033E07B681B6C002B09D17868FCF706FFE5
:104180007B6800225A647B68002283F83C207B68AD
:104190001B6C03F01003002B18D17B681B6C23F4FD
:1041A000885323F0020343F002027B681A647868A4
:1041B00000F03AF97B6800225A647B681B6C23F09C
:1041C000030343F001027B681A6401E00123FB73DF
:1041D0007B68002283F83C20FB7B18461037BD46E5
:1041E00080BD000080B485B000AF786039600023E6
:1041F000BB607B6893F83C30012B01D1022305E1C1
:104200007B68012283F83C203B681B68092B25D979
:104210007B681B68D9683B681B689BB21A461346CB
:104220005B0013441E3B072202FA03F3DA437B6868
:104230001B680A40DA607B681B68D9683B689A682B
:104240003B681B689BB2184603465B0003441E3B59
:104250009A407B681B680A43DA6022E07B681B682F
:1042600019693B681B689BB21A4613465B001344EE
:10427000072202FA03F3DA437B681B680A401A61DB
:104280007B681B6819693B689A683B681B689BB22E
:10429000184603465B0003449A407B681B680A4348
:1042A0001A613B685B68062B24D87B681B68596BD6
:1042B0003B685A6813469B001344053B1F2202FAD1
:1042C00003F3DA437B681B680A405A637B681B6808
:1042D000596B3B681B689BB218463B685A6813468B
:1042E0009B001344053B00FA03F27B681B680A43FA
:1042F0005A634CE03B685B680C2B24D87B681B68D6
:10430000196B3B685A6813469B001344233B1F22DA
:1043100002FA03F3DA437B681B680A401A637B687E
:104320001B68196B3B681B689BB218463B685A6850
:1043300013469B001344233B00FA03F27B681B687F
:104340000A431A6323E07B681B68D96A3B685A6892
:1043500013469B001344413B1F2202FA03F3DA4346
:104360007B681B680A40DA627B681B68D96A3B6815
:104370001B689BB218463B685A6813469B0013445F
:10438000413B00FA03F27B681B680A43DA62224B66
:10439000FB607B681B68214A934209D13B681B681C
:1043A000122B05D1FB685B6843F48002FB685A60FE
:1043B0007B681B68194A934223D13B681B68102B0A
:1043C00003D03B681B68112B1BD1FB685B6843F46F
:1043D0000002FB685A603B681B68102B11D1104B20
:1043E0001B68104AA2FB03239A0C13469B0013443C
:1043F0005B00BB6002E0BB68013BBB60BB68002B9D
:10440000F9D17B68002283F83C200023184614373A
:10441000BD465DF8047B7047002301400020014049
:104420000C00002083DE1B4380B485B000AF7860B1
:10443000794BFB60FB685B6823F44032FB685A6091
:10444000FB685A687B685B681A43FB685A607B6844
:104450001B685A687B681B6822F480725A607B680C
:104460001B6859687B681B691A027B681B680A43D2
:104470005A607B681B685A687B681B6822F0407230
:104480005A607B681B6859687B689A687B681B6800
:104490000A435A607B681B689A687B681B6822F431
:1044A00000629A607B681B6899687B68DA687B6841
:1044B0001B680A439A607B689B6A584A934222D0E1
:1044C0007B681B689A687B681B6822F070629A6040
:1044D0007B681B6899687B689A6A7B681B680A43DB
:1044E0009A607B681B689A687B681B6822F0405260
:1044F0009A607B681B6899687B68DA6A7B681B68CE
:104500000A439A600FE07B681B689A687B681B68A7
:1045100022F070629A607B681B689A687B681B68EF
:1045200022F040529A607B681B689A687B681B681F
:1045300022F002029A607B681B6899687B681B7E88
:104540005A007B681B680A439A607B6893F82030A6
:10455000002B1BD07B681B685A687B681B6842F481
:1045600000625A607B681B685A687B681B6822F48B
:1045700060425A607B681B6859687B685B6A013BD4
:104580005A037B681B680A435A6007E07B681B6814
:104590005A687B681B6822F400625A607B681B685B
:1045A000DA6A7B681B6822F47002DA627B681B6837
:1045B000D96A7B68DB69013B1A057B681B680A4383
:1045C000DA627B681B689A687B681B6822F4007259
:1045D0009A607B681B6899687B6893F830305A0250
:1045E0007B681B680A439A607B681B689A687B68D3
:1045F0001B6822F480629A607B681B6899687B68FC
:104600005B699A027B681B680A439A6000BF143793
:10461000BD465DF8047B7047002301400100000F98
:1046200080B485B000AF78607B6803F00703FB605F
:104630000C4BDB68BB60BA684FF6FF031340BB60EE
:10464000FB681A02BB68134343F0BF6343F40033B3
:10465000BB60044ABB68D36000BF1437BD465DF839
:10466000047B704700ED00E080B400AF044BDB68D2
:104670001B0A03F007031846BD465DF8047B70472C
:1046800000ED00E080B483B000AF0346FB7197F902
:104690000730002B0BDBFB7903F01F02074997F96A
:1046A00007305B09012000FA02F241F8232000BF25
:1046B0000C37BD465DF8047B704700BF00E100E0A9
:1046C00080B483B000AF03463960FB7197F90730BF
:1046D000002B0ADB3B68DAB20C4997F9073012016C
:1046E000D2B20B4483F800230AE03B68DAB20849EF
:1046F000FB7903F00F03043B1201D2B20B441A768C
:1047000000BF0C37BD465DF8047B704700E100E058
:1047100000ED00E080B489B000AFF860B9607A6065
:10472000FB6803F00703FB61FB69C3F10703042B7C
:1047300028BF0423BB61FB690433062B02D9FB6944
:10474000033B00E000237B614FF0FF32BB6902FABC
:1047500003F3DA43BB681A407B699A404FF0FF319C
:104760007B6901FA03F3D9437B680B401343184676
:104770002437BD465DF8047B7047000080B582B0E9
:1047800000AF78607B68013BB3F1807F01D30123E8
:104790000FE00A4A7B68013B53600F214FF0FF3066
:1047A000FFF78EFF054B00229A60044B07221A6028
:1047B000002318460837BD4680BD00BF10E000E06A
:1047C00080B582B000AF78607868FFF729FF00BF3E
:1047D0000837BD4680BD80B586B000AF0346B960DE
:1047E0007A60FB7300237B61FFF73EFF78617A6894
:1047F000B9687869FFF78EFF024697F90F301146C6
:104800001846FFF75DFF00BF1837BD4680BD80B575
:1048100082B000AF0346FB7197F907301846FFF7E7
:1048200031FF00BF0837BD4680BD80B582B000AF04
:1048300078607868FFF7A2FF034618460837BD4640
:1048400080BD000080B586B000AF786000237B613A
:10485000FFF754FC38617B68002B01D1012399E0FC
:104860007B68022283F835207B68002283F834209D
:104870007B681B681A687B681B6822F001021A605B
:104880000FE0FFF73BFC02463B69D31A052B08D922
:104890007B6820225A657B68032283F83520032336
:1048A00078E07B681B681B6803F00103002BE8D1EC
:1048B0007B681B681B687B617A69384B13407B619E
:1048C0007B685A687B689B681A437B68DB681A437D
:1048D0007B681B691A437B685B691A437B689B6929
:1048E0001A437B68DB691A437B681B6A13437A6946
:1048F00013437B617B685B6A042B07D17B68DA6AB0
:104900007B681B6B13437A6913437B617B681B686D
:104910007A691A607B681B685B697B617B6923F03D
:1049200007037B617B685B6A7A6913437B617B6801
:104930005B6A042B17D17B689B6A7A6913437B619E
:104940007B68DB6A002B0ED0786800F0E9F903463B
:10495000002B08D07B6840225A657B68012283F8CF
:104960003520012316E07B681B687A695A617868F4
:1049700000F0A0F90346FB607B68DB6D3F229A40A4
:10498000FB689A607B6800225A657B68012283F885
:104990003520002318461837BD4680BD3F8010F0F3
:1049A00080B586B000AF78600023BB608E4B1B687B
:1049B0008E4AA2FB03239B0A7B617B689B6D3B6154
:1049C0003B691B68FB607B68DB6D08229A40FB68D3
:1049D0001340002B1AD07B681B681B6803F004038C
:1049E000002B13D07B681B681A687B681B6822F059
:1049F00004021A607B68DB6D08229A403B699A606A
:104A00007B685B6D43F001027B685A657B68DB6DF8
:104A100001229A40FB681340002B12D07B681B6870
:104A20005B6903F08003002B0BD07B68DB6D0122F8
:104A30009A403B699A607B685B6D43F002027B6839
:104A40005A657B68DB6D04229A40FB681340002B9B
:104A500012D07B681B681B6803F00203002B0BD08D
:104A60007B68DB6D04229A403B699A607B685B6DD2
:104A700043F004027B685A657B68DB6D10229A4024
:104A8000FB681340002B43D07B681B681B6803F056
:104A90000803002B3CD07B68DB6D10229A403B69F9
:104AA0009A607B681B681B6803F48023002B18D076
:104AB0007B681B681B6803F40023002B08D17B680C
:104AC0001B6C002B24D07B681B6C786898471FE018
:104AD0007B689B6C002B1BD07B689B6C786898472D
:104AE00016E07B681B681B6803F48073002B07D1FA
:104AF0007B681B681A687B681B6822F008021A60D2
:104B00007B681B6C002B03D07B681B6C7868984714
:104B10007B68DB6D20229A40FB681340002B00F07D
:104B20008F807B681B681B6803F01003002B00F06C
:104B300087807B68DB6D20229A403B699A607B68A6
:104B400093F83530DBB2052B36D17B681B681A68C9
:104B50007B681B6822F016021A607B681B685A6922
:104B60007B681B6822F080025A617B681B6C002BFB
:104B700003D17B689B6C002B07D07B681B681A688D
:104B80007B681B6822F008021A607B68DB6D3F229D
:104B90009A403B699A607B68012283F835207B68E4
:104BA000002283F834207B681B6D002B7ED07B684D
:104BB0001B6D7868984779E07B681B681B6803F475
:104BC0008023002B1DD07B681B681B6803F4002327
:104BD000002B0DD17B685B6C002B31D07B685B6C4C
:104BE000786898472CE000BF0C000020B5814E1B70
:104BF0007B68DB6B002B23D07B68DB6B7868984786
:104C00001EE07B681B681B6803F48073002B0FD1C8
:104C10007B681B681A687B681B6822F010021A60A8
:104C20007B68012283F835207B68002283F83420DA
:104C30007B68DB6B002B03D07B68DB6B7868984765
:104C40007B685B6D002B32D07B685B6D03F00103EA
:104C5000002B22D07B68052283F835207B681B68F7
:104C60001A687B681B6822F001021A60BB68013376
:104C7000BB607A699A4207D37B681B681B6803F0A4
:104C80000103002BF2D100E000BF7B68012283F812
:104C900035207B68002283F834207B68DB6C002B96
:104CA00005D07B68DB6C7868984700E000BF183758
:104CB000BD4680BD80B485B000AF78607B681B685E
:104CC000DBB2103B144AA2FB03231B09FB60134A0F
:104CD000FB6813441B781A467B68DA65FB68032B74
:104CE00009D97B681B6823F47F7323F003031A1D23
:104CF0007B689A6507E07B681B6823F47F7323F069
:104D000003037A6893657B689B6D18461437BD462C
:104D10005DF8047B704700BFABAAAAAA98C300083D
:104D200080B485B000AF78600023FB737B689B6A1A
:104D3000BB607B689B69002B1FD1BB68032B56D8D7
:104D400001A252F823F000BF594D00086B4D000836
:104D5000594D0008EF4D00087B68DB6A03F0807353
:104D6000002B46D00123FB7343E07B68DB6AB3F181
:104D7000C07F40D10123FB733DE07B689B69B3F5A5
:104D8000005F21D1BB68032B37D801A252F823F072
:104D9000A14D0008A74D0008A14D0008B94D00081D
:104DA0000123FB7330E07B68DB6A03F08073002B28
:104DB00025D00123FB7322E07B68DB6AB3F1C07F5F
:104DC0001FD10123FB731CE0BB68022B03D9BB6816
:104DD000032B03D018E00123FB7315E07B68DB6A2B
:104DE00003F08073002B0ED00123FB730BE000BF98
:104DF0000AE000BF08E000BF06E000BF04E000BF1B
:104E000002E000BF00E000BFFB7B18461437BD4640
:104E10005DF8047B704700BF80B489B000AF786054
:104E2000396000237B6100233B610023BB610023C9
:104E3000FB616BE10122FB6902FA03F37B613B68D2
:104E40001B687A6913403B613A697B699A4240F07A
:104E50005A813B685B6803F00303012B05D03B6874
:104E60005B6803F00303022B30D17B689B68BB6156
:104E7000FB695B00032202FA03F3DB43BA691340C8
:104E8000BB613B68DA68FB695B0002FA03F3BA694D
:104E90001343BB617B68BA699A607B685B68BB61DE
:104EA0000122FB6902FA03F3DB43BA691340BB61D9
:104EB0003B685B681B0903F00102FB6902FA03F31C
:104EC000BA691343BB617B68BA695A603B685B6827
:104ED00003F00303032B17D07B68DB68BB61FB691E
:104EE0005B00032202FA03F3DB43BA691340BB61A0
:104EF0003B689A68FB695B0002FA03F3BA691343E3
:104F0000BB617B68BA69DA603B685B6803F00303E6
:104F1000022B23D1FB69DA087B68083253F8223070
:104F2000BB61FB6903F007039B000F2202FA03F346
:104F3000DB43BA691340BB613B681A69FB6903F044
:104F400007039B0002FA03F3BA691343BB61FB69D1
:104F5000DA087B680832B96943F822107B681B685D
:104F6000BB61FB695B00032202FA03F3DB43BA690E
:104F70001340BB613B685B6803F00302FB695B00A5
:104F800002FA03F3BA691343BB617B68BA691A601A
:104F90003B685B6803F44033002B00F0B4800023CF
:104FA000FB60604B5B6C5F4A43F4804353645D4B32
:104FB0005B6C03F48043FB60FB685B4AFB699B0806
:104FC000023352F82330BB61FB6903F003039B00FB
:104FD0000F2202FA03F3DB43BA691340BB617B681B
:104FE000524A93422BD07B68514A934225D07B682A
:104FF000504A93421FD07B684F4A934219D07B6836
:105000004E4A934213D07B684D4A93420DD07B6841
:105010004C4A934207D07B684B4A934201D1072305
:105020000EE008230CE006230AE0052308E0042331
:1050300006E0032304E0022302E0012300E0002352
:10504000FA6902F0030292009340BA691343BB610C
:105050003549FB699B080233BA6941F823203B4B71
:105060001B68BB613B69DB43BA691340BB613B68AA
:105070005B6803F48033002B03D0BA693B691343A8
:10508000BB61324ABB691360304B5B68BB613B69F3
:10509000DB43BA691340BB613B685B6803F40033D0
:1050A000002B03D0BA693B691343BB61274ABB6934
:1050B0005360264B9B68BB613B69DB43BA69134075
:1050C000BB613B685B6803F48013002B03D0BA69B3
:1050D0003B691343BB611D4ABB6993601B4BDB6893
:1050E000BB613B69DB43BA691340BB613B685B68EA
:1050F00003F40013002B03D0BA693B691343BB616F
:10510000124ABB69D360FB690133FB61FB690F2B5A
:105110007FF690AE00BF00BF2437BD465DF8047B2C
:10512000704700BF003802400038014000000240D4
:105130000004024000080240000C0240001002403F
:105140000014024000180240001C0240003C0140D4
:1051500080B485B000AF78600B467B807B681A69AD
:105160007B881340002B02D00123FB7301E0002356
:10517000FB73FB7B18461437BD465DF8047B704714
:1051800080B483B000AF78600B467B8013467B70A1
:105190007B78002B03D07A887B689A6103E07B8858
:1051A0001A047B689A6100BF0C37BD465DF8047B2A
:1051B0007047000080B584B000AF78607B68002B3A
:1051C00001D101232BE17B6893F83D30DBB2002B4A
:1051D00006D17B68002283F83C207868FCF74CFA03
:1051E0007B68242283F83D207B681B681A687B68F3
:1051F0001B6822F001021A607B681B681A687B68D2
:105200001B6842F400421A607B681B681A687B685E
:105210001B6822F400421A6001F0FCFBF8607B6816
:105220005B68814A934207D8FB68804A934294BFE7
:1052300001230023DBB206E0FB687D4A934294BF62
:1052400001230023DBB2002B01D00123E7E0FB6840
:10525000784AA2FB03239B0CBB607B681B685B68DE
:1052600023F03F017B681B68BA680A435A607B6879
:105270001B681B6A23F03F017B685B686A4A9342A4
:1052800002D8BB68013309E0BB684FF4967202FB99
:1052900003F3694AA2FB03239B0901337A6812686E
:1052A0000B4313627B681B68DB6923F44F4222F0D7
:1052B000FF027B685B685C498B4219D8FB68591E0A
:1052C0007B685B685B00B1FBF3F3591C40F6FC7331
:1052D0000B40002B0AD0FB68591E7B685B685B00A3
:1052E000B1FBF3F30133C3F30B0351E004234FE0AD
:1052F0007B689B68002B11D1FB68581E7B6859683E
:105300000B465B000B44B0FBF3F30133C3F30B0319
:10531000002B0CBF01230023DBB212E0FB68581EF8
:105320007B6859680B469B000B4499000B44B0FB0B
:10533000F3F30133C3F30B03002B0CBF0123002352
:10534000DBB2002B01D0012322E07B689B68002B9D
:105350000ED1FB68581E7B6859680B465B000B44F6
:10536000B0FBF3F30133C3F30B0343F400430FE04B
:10537000FB68581E7B6859680B469B000B449900DC
:105380000B44B0FBF3F30133C3F30B0343F440438B
:10539000796809681343CB617B681B681B6823F03D
:1053A000C0017B68DA697B681B6A1A437B681B68EB
:1053B0000A431A607B681B689B6823F4034323F04D
:1053C000FF037A6811697A68D26811437A681268B3
:1053D0000B4393607B681B68DB6823F0FF017B68ED
:1053E0005A697B689B691A437B681B680A43DA60C9
:1053F0007B681B681A687B681B6842F001021A60B0
:105400007B6800221A647B68202283F83D207B6839
:1054100000221A637B68002283F83E20002318468E
:105420001037BD4680BD00BFA08601007F841E00EE
:10543000FF083D0083DE1B43D34D621080B588B06A
:1054400002AFF860084611461A4603467B810B46B8
:105450003B811346FB80FEF751FE7861FB6893F8B1
:105460003D30DBB2202B40F0D9807B6900931923BB
:1054700001226D49F86800F07FFC0346002B01D043
:105480000223CCE0FB6893F83C30012B01D10223CE
:10549000C5E0FB68012283F83C20FB681B681B68A1
:1054A00003F00103012B07D0FB681B681A68FB6837
:1054B0001B6842F001021A60FB681B681A68FB68EF
:1054C0001B6822F400621A60FB68212283F83D20E9
:1054D000FB68402283F83E20FB6800221A64FB68C8
:1054E0003A6A5A62FB68BA8C5A85FB685B8D9AB23D
:1054F000FB681A85FB684D4ADA62F8883A8979892F
:105500007B690193BB6A00930346F86800F0B6FA22
:105510000346002B52D0012381E07A69B96AF8680A
:1055200000F000FD0346002B0DD0FB681B6C042B24
:1055300007D1FB681B681A68FB681B6842F400729D
:105540001A6001236BE0FB685B6A1A78FB681B68D2
:105550001A61FB685B6A5A1CFB685A62FB681B8D08
:10556000013B9AB2FB681A85FB685B8D9BB2013BDD
:105570009AB2FB685A85FB681B685B6903F00403F9
:10558000042B1BD1FB681B8D002B17D0FB685B6ABB
:105590001A78FB681B681A61FB685B6A5A1CFB6817
:1055A0005A62FB681B8D013B9AB2FB681A85FB6847
:1055B0005B8D9BB2013B9AB2FB685A85FB681B8DE1
:1055C000002BAAD17A69B96AF86800F0ECFC0346AE
:1055D000002B0DD0FB681B6C042B07D1FB681B68EC
:1055E0001A68FB681B6842F400721A60012316E017
:1055F000FB681B681A68FB681B6842F400721A603B
:10560000FB68202283F83D20FB68002283F83E20BF
:10561000FB68002283F83C20002300E002231846A8
:105620001837BD4680BD00BF020010000000FFFF1C
:1056300080B58CB002AFF860084611461A460346A2
:105640007B810B463B811346FB80FEF757FD78625A
:10565000FB6893F83D30DBB2202B40F008827B6A78
:105660000093192301227B49F86800F085FB03466B
:10567000002B01D00223FBE1FB6893F83C30012BA7
:1056800001D10223F4E1FB68012283F83C20FB688E
:105690001B681B6803F00103012B07D0FB681B6824
:1056A0001A68FB681B6842F001021A60FB681B68FD
:1056B0001A68FB681B6822F400621A60FB682222E9
:1056C00083F83D20FB68402283F83E20FB680022DF
:1056D0001A64FB683A6B5A62FB68BA8E5A85FB689B
:1056E0005B8D9AB2FB681A85FB685B4ADA62F888C0
:1056F0003A8979897B6A0193BB6B00930346F8680A
:1057000000F052FA0346002B01D00123B0E1FB6800
:105710001B8D002B13D100233B62FB681B685B6968
:105720003B62FB681B689B693B623B6AFB681B68CA
:105730001A68FB681B6842F400721A6084E1FB6817
:105740001B8D012B1BD1FB681B681A68FB681B684B
:1057500022F480621A600023FB61FB681B685B69AE
:10576000FB61FB681B689B69FB61FB69FB681B684D
:105770001A68FB681B6842F400721A6064E1FB68F7
:105780001B8D022B1BD1FB681B681A68FB681B680A
:1057900022F480621A60FB681B681A68FB681B6849
:1057A00042F400621A600023BB61FB681B685B69FE
:1057B000BB61FB681B689B69BB61BB6944E100235B
:1057C0007B61FB681B685B697B61FB681B689B698D
:1057D0007B617B6938E1FB681B8D032B00F2F18054
:1057E000FB681B8D012B23D17A6AB96BF86800F036
:1057F0001BFC0346002B01D0012339E1FB681B6829
:105800001A69FB685B6AD2B21A70FB685B6A5A1C41
:10581000FB685A62FB681B8D013B9AB2FB681A85D4
:10582000FB685B8D9BB2013B9AB2FB685A850BE12A
:10583000FB681B8D022B4ED17B6A0093BB6B002251
:105840000649F86800F098FA0346002B08D00123B7
:105850000EE100BF020010000000FFFF0400010085
:10586000FB681B681A68FB681B6842F400721A60C8
:10587000FB681B681A69FB685B6AD2B21A70FB6826
:105880005B6A5A1CFB685A62FB681B8D013B9AB22B
:10589000FB681A85FB685B8D9BB2013B9AB2FB6883
:1058A0005A85FB681B681A69FB685B6AD2B21A707A
:1058B000FB685B6A5A1CFB685A62FB681B8D013BE4
:1058C0009AB2FB681A85FB685B8D9BB2013B9AB26A
:1058D000FB685A85B8E07B6A0093BB6B002266497F
:1058E000F86800F049FA0346002B01D00123BFE01D
:1058F000FB681B681A68FB681B6822F480621A60E8
:10590000FB681B681A69FB685B6AD2B21A70FB6895
:105910005B6A5A1CFB685A62FB681B8D013B9AB29A
:10592000FB681A85FB685B8D9BB2013B9AB2FB68F2
:105930005A857B6A0093BB6B00224F49F86800F0E0
:105940001BFA0346002B01D0012391E0FB681B6882
:105950001A68FB681B6842F400721A60FB681B68D7
:105960001A69FB685B6AD2B21A70FB685B6A5A1CE0
:10597000FB685A62FB681B8D013B9AB2FB681A8573
:10598000FB685B8D9BB2013B9AB2FB685A85FB6852
:105990001B681A69FB685B6AD2B21A70FB685B6AA3
:1059A0005A1CFB685A62FB681B8D013B9AB2FB686C
:1059B0001A85FB685B8D9BB2013B9AB2FB685A85E6
:1059C00042E07A6AB96BF86800F02EFB0346002BC0
:1059D00001D001234CE0FB681B681A69FB685B6A15
:1059E000D2B21A70FB685B6A5A1CFB685A62FB6889
:1059F0001B8D013B9AB2FB681A85FB685B8D9BB2DD
:105A0000013B9AB2FB685A85FB681B685B6903F02F
:105A10000403042B18D1FB681B681A69FB685B6AD6
:105A2000D2B21A70FB685B6A5A1CFB685A62FB6848
:105A30001B8D013B9AB2FB681A85FB685B8D9BB29C
:105A4000013B9AB2FB685A85FB681B8D002B7FF4E3
:105A5000C2AEFB68202283F83D20FB68002283F859
:105A60003E20FB68002283F83C20002300E0022354
:105A700018462837BD4680BD0400010080B588B0B7
:105A800002AFF860084611461A4603467B810B4672
:105A90003B811346FB80FB681B681A68FB681B6828
:105AA00042F480721A607B6A00933B6A00224FF0D6
:105AB0000111F86800F060F90346002B0DD0FB6877
:105AC0001B681B6803F48073B3F5807F03D1FB6808
:105AD0004FF400721A6403235FE07B89DBB21A463D
